{
  "_format": "hh-sol-artifact-1",
  "contractName": "UpgradeableContractV2",
  "sourceName": "contracts/UpgradeableContractV2.sol",
  "abi": [
    {
      "anonymous": false,
      "inputs": [
        {
          "indexed": false,
          "internalType": "uint256",
          "name": "newValue",
          "type": "uint256"
        }
      ],
      "name": "ValueChanged",
      "type": "event"
    },
    {
      "inputs": [],
      "name": "increment",
      "outputs": [],
      "stateMutability": "nonpayable",
      "type": "function"
    },
    {
      "inputs": [],
      "name": "retrieve",
      "outputs": [
        {
          "internalType": "uint256",
          "name": "",
          "type": "uint256"
        }
      ],
      "stateMutability": "view",
      "type": "function"
    },
    {
      "inputs": [
        {
          "internalType": "uint256",
          "name": "newValue",
          "type": "uint256"
        }
      ],
      "name": "store",
      "outputs": [],
      "stateMutability": "nonpayable",
      "type": "function"
    },
    {
      "inputs": [],
      "name": "version",
      "outputs": [
        {
          "internalType": "uint8",
          "name": "",
          "type": "uint8"
        }
      ],
      "stateMutability": "pure",
      "type": "function"
    }
  ],
  "bytecode": "0x6080604052348015600f57600080fd5b506102b88061001f6000396000f3fe608060405234801561001057600080fd5b506004361061004c5760003560e01c80632e64cec11461005157806354fd4d501461006f5780636057361d1461008d578063d09de08a146100a9575b600080fd5b6100596100b3565b604051610066919061016f565b60405180910390f35b6100776100bc565b60405161008491906101a6565b60405180910390f35b6100a760048036038101906100a291906101f2565b6100c5565b005b6100b1610106565b005b60008054905090565b60006002905090565b806000819055507f93fe6d397c74fdf1402a8b72e47b68512f0510d7b98a4bc4cbdf6ac7108b3c59816040516100fb919061016f565b60405180910390a150565b6002600054610115919061024e565b6000819055507f93fe6d397c74fdf1402a8b72e47b68512f0510d7b98a4bc4cbdf6ac7108b3c5960005460405161014c919061016f565b60405180910390a1565b6000819050919050565b61016981610156565b82525050565b60006020820190506101846000830184610160565b92915050565b600060ff82169050919050565b6101a08161018a565b82525050565b60006020820190506101bb6000830184610197565b92915050565b600080fd5b6101cf81610156565b81146101da57600080fd5b50565b6000813590506101ec816101c6565b92915050565b600060208284031215610208576102076101c1565b5b6000610216848285016101dd565b91505092915050565b7f4e487b7100000000000000000000000000000000000000000000000000000000600052601160045260246000fd5b600061025982610156565b915061026483610156565b925082820190508082111561027c5761027b61021f565b5b9291505056fea26469706673582212208df592b90e647d21cba169d8c20a6d567c4a8313fb174946acfb13ddffffc9cd64736f6c634300081c0033",
  "linkReferences": {},
  "deployedLinkReferences": {}
}